:020000040800F2
:10000000A0370020450100088D2F00083B1D000887
:10001000AF2E00086D110008914B00080000000091
:10002000000000000000000000000000E13B0008AC
:10003000E91400080000000061380008F93E0008DB
:100040005F0100085F0100085F0100085F01000810
:100050005F0100085F0100085F0100085F01000800
:100060005F0100085F0100085F0100085F010008F0
:100070005F0100085F0100085F0100085F010008E0
:100080005F0100085F0100085F0100085F010008D0
:100090005F0100085F0100085F0100085F010008C0
:1000A0005F0100085F0100085F0100085F010008B0
:1000B0005F0100085F010008814000085F0100083F
:1000C0005F0100085F0100085F0100085F01000890
:1000D0005F01000831450008B94500085146000895
:1000E0005F0100085F0100085F0100085F01000870
:1000F0005F0100085F0100085F0100085F01000860
:100100005F0100085F0100085F0100085F0100084F
:100110005F0100085F0100085F0100085F0100083F
:100120005F0100085F0100085F0100085F0100082F
:10013000DFF80CD000F004FE00480047615B0008C7
:10014000A03700200648804706480047FEE7FEE744
:10015000FEE7FEE7FEE7FEE7FEE7FEE7FEE7FEE777
:100160002D3F000831010008A0F14101192900D8F4
:100170002030704740EA01039B0703D009E008C91B
:10018000121F08C0042AFAD203E011F8013B00F85C
:10019000013B521EF9D27047D2B201E000F8012BA8
:1001A000491EFBD270470022F6E710B513460A46F7
:1001B00004461946FFF7F0FF204610BD421E12F814
:1001C000013F002BFBD111F8013B02F8013B002B52
:1001D000F9D1704730B505462A460B4612F8010B97
:1001E00013F8014B08B1A042F8D01CB1002802D08E
:1001F0006D1CF1E7284630BDCAB2401E10F8011F41
:100200008A4202D00029F9D100207047421C10F820
:10021000011B0029FBD1801A704710B5002200E0B5
:10022000521C835C8C5CA34201D1002BF8D1D8B264
:10023000E1B2401A10BD10B5044600E0401C03783E
:10024000002BFBD100E0401C521E04D311F8013BEF
:100250000370002BF7D100210170204610BD30B58E
:1002600005460020034600E05B1C934205D2EC5C8F
:10027000C85C201A01D1002CF6D130BD2DE9FF4F0A
:10028000087883B09946FF2805D0491C2D2804D052
:100290000024002008E000200BE00124F9E700EB37
:1002A000800003EB4000491C0B78FF2BF7D104B111
:1002B000404200230293147819461D462D2C01D08C
:1002C0002B2C04D1521C2D2C13D000240294AA46AE
:1002D0001478FF2C0FD00A25A3FB057801FB0581BC
:1002E0004FF0000C03FB0C11521CE3194AEB010107
:1002F000EEE70124EAE7814453EA010002D019F550
:10030000C87F06DA03980021C0E9001107B0BDE8F4
:10031000F08F0025AE4E2F46DFF8B882184600F069
:10032000EAFCCDE90001B9F1000002DAC9F10004EC
:1003300000E004460023A74A1AEB030B42EB045AE1
:1003400012E0E00707D02A4633463846414600F01F
:10035000ECF9074688462A4633461046194600F00F
:10036000E4F905460E466410002CEAD1DDE90001EF
:10037000B9F1000F5A46534606DA00F04DFC3A46F2
:10038000434600F049FC05E000F0CFF93A46434609
:1003900000F0CBF9029A0AB181F00041039AC2E958
:1003A0000001B3E72DE9FF4F1F468DB0D7E90146A5
:1003B0004FF0FF382E2045464FF000090B90B969E9
:1003C0006D1C0E988847396A824688470028F6D106
:1003D000BAF1FF3F0AD024F4D064002E11DDBAF147
:1003E0002B0F08D0BAF12D0F0BD102E0404611B00F
:1003F0008DE744F48064B9696D1C0E988847824685
:10040000761E6946600501D52D2000E02B208DF871
:10041000000001F1010B0DF1200809E0B9696D1C24
:100420000E98884782460F9844F40074761E056043
:10043000002E02DDBAF1300FF0D00B998A453ED183
:1004400044F0800406E00F99681CA9F1010944F406
:1004500000740860B9696D1C761E0E988847824644
:100460003028F0D02BE00B998A4505D1200603D423
:1004700044F08004761E18E0504604F0EDFD08B309
:100480000DF11301761E44F400748B4508D2AAF1D5
:1004900030000BF8010B200607D5A9F1010003E09D
:1004A000200602D409F101008146A00502D50F996A
:1004B000681C0860B9696D1C0E9888478246002E3A
:1004C000D1DC53E0002E51DDBAF1650F02D0BAF154
:1004D000450F4BD1A00549D5B9696D1C24F4407472
:1004E000761E0E9888478246002E0CDD2B2804D0FD
:1004F000BAF12D0F07D144F48074B9696D1C0E98C0
:1005000088478246761EE00501D52D2100E02B218B
:1005100008F8011BCDF82C8021E00DF12901761E91
:1005200044F4007488450CD2AAF1300010F0FF00AA
:1005300088F8000002D10B99884509D908F1010813
:1005400006E0E00501D5244801E042F20F70814643
:10055000B9696D1C0E98884782460F980560002E79
:1005600004DD504604F078FD0028D6D1F9690E98D4
:100570008847FF208BF8000088F8000000200690D4
:1005800007904B466A4608A906A8FFF777FEA00524
:1005900002D46FF001002AE714F0240F0AD0E0071C
:1005A00014D1DDE906123868031D3B600068C0E91C
:1005B00000120BE0DDE9060100F098F90146E007C2
:1005C00004D13868021D3A600068016028460EE7D1
:1005D000000014400000F03FF1D8FFFF2DE9FE4F6E
:1005E000804681EA0300C00F0C46009021F00041D4
:1005F00023F00045B8EB0200A94105D24046214650
:1006000090461C460B46024623F00040104347D05C
:10061000270DC7F30A00C3F30A510290401A019054
:1006200040286BDAC3F3130040F4801B0098924615
:1006300020B10023D2EB030A63EB0B0B0198594660
:10064000C0F14002504600F0B4F906460D4650464F
:100650005946019A00F0CCF910EB080061410024E2
:1006600087EA115284EAE7731A4340D0009A62B3D2
:10067000019A012A4FEA075215DC001B61EB0201C7
:100680004FF0004202EA0752CDE90042001C41F55A
:10069000801132462B4600F071FA03B0BDE8F08FAE
:1006A00040462146F9E7001B61EB0201001C41F5C1
:1006B000801300185B412018A2F5001747EB0301D7
:1006C00040EAD570B6196D4111E06D084FEA360663
:1006D00045EAC0754FEA0752001B61EB0201001C9E
:1006E00041F5801149084FEA300000195141324666
:1006F0002B4603B0BDE8F04F00F031BA009801225C
:1007000040000023D0EB020263EBE0730098214627
:100710004FEAE074B8EB000061EB0401E9E783F015
:1007200000435BE781F0004158E72DE9FE4F81EA85
:10073000030404F0004421F0004100944FF0000B4A
:1007400023F0004350EA01045ED052EA03045BD078
:10075000C3F30A54C1F30A552C44A4F2F3340194B0
:10076000A0FB0254C1F3130141F48011C3F313033E
:1007700043F4801301FB024400FB034E840A970AF2
:1007800044EA815447EA8357A4FB076802958D0A1F
:1007900005FB07854FEA932C04FB0C542705029DAB
:1007A0004FEA065847EA1637B5EB08056EEB070C1B
:1007B000870E920E47EA811742EA8312A7FB0201D5
:1007C000B6EB0B0164EB00042B0D43EA0C335E180F
:1007D00044EB1C50DA465146E7FB0201C5F3130413
:1007E0004FEA0B3343EA14534FEA0432019C43EAC5
:1007F0000603A4F10C040294009CCDE900B400F0BF
:10080000BDF903B0BDE8F08F00200146F9E70EB551
:1008100040F2334102910021CDE900110A460B4616
:1008200000F0ACF903B000BD70B5C1F30A5201F09D
:1008300000450024C1F3130140F2FF3341F480115D
:100840009A4201DA002070BD40F233439A42A2F28C
:10085000334203DC524200F0BBF800E090402C43EE
:10086000F1D0404270BD00F0004230F000400AD0AC
:10087000C10D01F56071C0F3160042EA0151C208D2
:1008800040071143704700200146704730B5041EF1
:1008900071F1000404DB4FF00044404264EB0101BD
:1008A000141E73F1000405DB1C464FF00043524256
:1008B00063EB04038B4208BF824230BD30B5041E97
:1008C00071F1000404DB4FF00044404264EB01018D
:1008D000141E73F1000405DB1C464FF00043524226
:1008E00063EB0403994208BF904230BD01F000431E
:1008F00030B421F0004150EA010206D00A0DA2F501
:100900006072C1F31301002A02DC30BC0020704782
:10091000440F44EAC104C100E01830BC00EBC250EF
:1009200000F0E6B830B50B46014600202022012435
:1009300009E021FA02F59D4205D303FA02F5491BAD
:1009400004FA02F52844151EA2F10102F1DC30BDC3
:100950002DE9F05F0546002092469B4688460646F4
:10096000814640241BE0284641464746224600F087
:100970002FF853465A46C01A914110D311461846D3
:10098000224600F016F82D1A67EB01084F46224662
:100990000120002100F00DF817EB00094E41201E48
:1009A000A4F10104DFDC484631462A464346BDE84F
:1009B000F09F202A04DB203A00FA02F10020704761
:1009C0009140C2F1200320FA03F31943904070478D
:1009D000202A04DB203A21FA02F00021704721FA94
:1009E00002F3D040C2F120029140084319467047FB
:1009F000202A06DBCB17203A41FA02F043EAE073E3
:100A000006E041FA02F3D040C2F1200291400843CF
:100A100019467047426842B1016811F8013B23B1A1
:100A2000521EC0E90012184670470121C160881E9D
:100A3000704742685AB1C368016843B983688B4202
:100A400005D0491E521CC0E90012002070474FF02B
:100A5000FF3070470FB4002300B589B00CA9009196
:100A60000B996FF00042CB601E4B06931E4B079311
:100A70000423CDE901321D4A089202466B4600204C
:100A8000FFF790FC09B05DF814FB70B586B0064620
:100A90004FF0FF300091CDE90101002015460C46D2
:100AA00004903246694604A8FFF7D4FF0246049832
:100AB000211825B108B1084600E0204628600498B6
:100AC00000280DD0002A02DD0098884208D0081BBB
:100AD0000094CDE901043246694604A8FFF7BAFF45
:100AE00006B070BD150A0008330A0008650D00083D
:100AF0000029A8BF7047401C490008BF20F0010032
:100B0000704710B4B0FA80FC00FA0CF050EA01040F
:100B100004BF10BC704749B1CCF1200421FA04F4A1
:100B200011FA0CF118BF012121430843A3EB0C017A
:100B3000CB1D4FEA00614FEA102042BF002010BCDD
:100B4000704700EBC35010440029A4BF10BC70478D
:100B5000401C490008BF20F0010010BC704710B5D0
:100B6000141E73F1000408DA401C41F100019218D0
:100B70005B411A4301D120F0010010BD2DE9F04D79
:100B800092469B4611B1B1FA81F202E0B0FA80F2CE
:100B900020329046FFF70DFF04460F4640EA0A0058
:100BA00041EA0B0153465A46084313D0114653EA13
:100BB000010019D0C8F140025046FFF709FF054671
:100BC0000E46504659464246FFF7F3FE084305D00D
:100BD000012004E020463946BDE8F08D00200543A1
:100BE00046EAE0762C4337430A986305E40AA0EB13
:100BF00008000022FD0A44EA47540A3002D50020CA
:100C00000146E9E7010510196941DDE908450019C8
:100C10006941BDE8F04DA2E72DE9F04D81EA0304FA
:100C200004F0004B21F0004514464FF0000A23F079
:100C3000004150EA050220D054EA01021DD0C5F35C
:100C40000A570246C5F31303C1F31300C1F30A5652
:100C500040F4801543F48013A7EB0608101BD6461A
:100C600008F2FD3873EB050002D308F1010801E03A
:100C700092185B41B8F1000F03DA00200146BDE88D
:100C8000F08D00204FF48011064684460EE0171BBD
:100C900073EB050705D3121B63EB050306434CEA10
:100CA000010C49084FEA300092185B4150EA0107F5
:100CB000EDD152EA030012D082EA040083EA050172
:100CC000084305D0101BAB4106D20122002306E0E9
:100CD00000224FF0004302E06FF0010253101AEBC4
:100CE00006004CEB085110EB0A0041EB0B01BDE88C
:100CF000F04DFFF734BF0EB540F2334202920022AE
:100D0000CDE900221346FFF739FF03B000BDC1F360
:100D10000A52C1F3130140F2FF3341F480119A42A9
:100D200002DA00200146704740F233439A42A2F2B1
:100D3000334202DC5242FFF74BBEFFF73ABE0000DF
:100D4000064C074D06E0E06840F0010394E8070018
:100D500098471034AC42F6D3FFF7EEF998670008D5
:100D6000B8670008C0B24FF4F05100F001B80000BD
:100D70007F2801D9002208E0064A02EB5002C00792
:100D8000127800D1120902F00F02012090400840B1
:100D9000704700004C67000870B58C1810F8015BB4
:100DA00015F0070301D110F8013B2A1106D110F804
:100DB000012B03E010F8016B01F8016B5B1EF9D108
:100DC0002B0705D40023521E0DD401F8013BFAE78E
:100DD00010F8013BCB1A921C03E013F8015B01F8F9
:100DE000015B521EF9D5A142D8D3002070BD21B1BC
:100DF000826842F00102826003E0826822F0010210
:100E00008260704721B1826842F48072826003E0A0
:100E1000826822F4807282607047014600208A68EE
:100E200002F004020AB1012000E0002070470146F0
:100E300000208A6802F008020AB1012000E00020C8
:100E40007047000030B502460020002350680F4C68
:100E500020400D790C6844EA0524204350609068D6
:100E60000B4C2040D1E902542C434D7944EA45040F
:100E700020439060D06A20F470000C7C641EE4B2C1
:100E8000234340EA0350D06230BD0000FFFEF0FF74
:100E9000FDF7F1FFF0B504460D4600200021092DB5
:100EA00011DDE068A5F10A0606EB4607072606FAFB
:100EB00007F18843A5F10A0606EB460603FA06F198
:100EC0000843E0600CE0206905EB4507072606FAB9
:100ED00007F1884305EB450603FA06F10843206154
:100EE000072A0FDA606B561E06EB86071F2606FAE6
:100EF00007F18843561E06EB860605FA06F10843FD
:100F0000606322E00D2A0FDA206BD61F06EB8607FE
:100F10001F2606FA07F18843D61F06EB860605FA58
:100F200006F10843206310E0E06AA2F10D0606EB2B
:100F300086071F2606FA07F18843A2F10D0606EB85
:100F4000860605FA06F10843E062F0BD816841F0CB
:100F500008018160704721B1826842F4A00282607A
:100F600003E0826822F4A00282607047816841F049
:100F7000040181607047000008B50121042002F0DF
:100F8000ADFC0320ADF8000000208DF80300694699
:100F9000014800F0F2FD08BD0008014010B5FFF760
:100FA000EBFF00F001F810BD00B591B0012108463B
:100FB00002F064FC0121480202F090FC364800F087
:100FC000CFF9364806903648079000200890022056
:100FD000099000200A9080200B9040000C90800027
:100FE0000D9020200E9000020F900020109006A976
:100FF000294800F05BFA0121274800F0A5F90020FC
:10100000019001208DF808008DF809004FF4602050
:1010100003900020049002208DF8140001A91F48BD
:101020004C38FFF70FFF4FF4404002F01BFC052344
:101030000122002119484C38FFF72CFF052302221A
:10104000012116484C38FFF725FF012113484C3881
:10105000FFF7D8FE012111484C38FFF7C8FE0F48B2
:101060004C38FFF773FF00BF0C484C38FFF7DFFE2A
:101070000028F9D109484C38FFF778FF00BF07482E
:101080004C38FFF7CAFE0028F9D1012103484C383B
:10109000FFF761FF11B000BD080002404C24014081
:1010A000A00B002010B518484079002804DD164830
:1010B0004079401E144948711348407910B9002006
:1010C0001149C87010488078012817D141030F4892
:1010D00000F026FE60B90E48807D042805DA0C4831
:1010E000807D401C0A49887502E001200849887506
:1010F0000749887D012100F0EDFE03E0002105A0F5
:1011000000F092FE10BD0000EE0B00200010014028
:10111000882700204133000070B504460D46012C9D
:1011200006D0022C09D0032C0DD0042C17D110E0CE
:1011300029460D4803F097F911E029464FF0804009
:1011400003F093F90BE029464FF0804003F08FF94C
:1011500005E029464FF0804003F08BF900BF00BF47
:10116000322004F04FFC70BD0004004000BFFEE7D9
:1011700010B5C8210348FFF716F80020024908807F
:1011800010BD0000F7140020A60B002010B50120B0
:1011900000F0ECFE04463CB14648007820B94648D1
:1011A000047001204349087064B142480078012866
:1011B00008DB404800780A2804DC3E480078401CE0
:1011C0003C490870002C4DD13A480078002849DD90
:1011D000384800780A2845DA37480078012804D0D2
:1011E000022820D0032837D135E034488078012800
:1011F00018D13248807D042805DA3048807D401CB3
:101200002E49887502E001202C4988752B49887D7C
:10121000002100F05FFE012029498870002129A0EB
:1012200000F002FE19E025488078012812D12448F8
:101230008078012807D1002123A000F0F5FD0020CF
:101240001F49887006E000211EA000F0EDFD01207E
:101250001B49887001E000E000BF00BF0020154975
:10126000087025E024BB134800780A2820DB1248C8
:101270000078012804D0022813D0032813D111E0EC
:1012800001F042FF0D48807818B901200B498870A1
:1012900006E00A488078012802D1002007498870BA
:1012A00002E001E000E000BF00BF0020014908703B
:1012B00010BD0000FA0B0020FB0B00208827002047
:1012C000EE0B0020413200004133000008B501213F
:1012D000042002F003FB4FF40040ADF800001020A2
:1012E0008DF8030003208DF802006946044800F0E1
:1012F00044FC4FF40041024800F01DFD08BD000011
:101300000008014008B54FF40040ADF80000482047
:101310008DF803006946024800F02FFC08BD00006C
:101320000008014008B54FF40040ADF8000010205F
:101330008DF8030003208DF802006946014800F093
:101340001CFC08BD0008014021B1026842F0010206
:10135000026004E002684FF6FE731A4002607047B4
:1013600001684FF6FE72114001600021016041608A
:101370008160C1604B49884208D14A4908394968AF
:1013800041F00F01474A083A51608AE0454914315B
:10139000884208D143490839496841F0F001414A7F
:1013A000083A51607DE03F492831884208D13D49E3
:1013B0000839496841F470613A4A083A516070E06E
:1013C00038493C31884208D136490839496841F4E6
:1013D0007041344A083A516063E0324950318842E2
:1013E00008D130490839496841F470212D4A083A3A
:1013F000516056E02B496431884208D129490839A7
:10140000496841F47001274A083A516049E025498A
:101410007831884208D123490839496841F0706120
:10142000204A083A51603CE01F49884206D1011F1A
:10143000096841F00F01021F116032E01A491431AE
:10144000884208D11849091F096841F0F001164A7D
:10145000121F116025E014492831884208D1124931
:10146000091F096841F470610F4A121F116018E0EA
:101470000D493C31884208D10B49091F096841F4E4
:101480007041094A121F11600BE007495031884230
:1014900007D10549091F096841F47021024A121F4A
:1014A00011607047080002400804024010B5002295
:1014B000026847F6F0739A430C6A8B6823430C6901
:1014C00023434C6923438C692343CC6923434C6AEF
:1014D00023438C6A23431A430260CB6843600B6842
:1014E00083604B68C36010BD7047000030B58BB09F
:1014F00000200790089009900A90012535A338A292
:1015000038A13AA003F05CFC07A8002102910391E6
:10151000CDE9041000912B022EA2019130A131A03F
:1015200000F0A0FF002843D1089A91B2079800F07C
:1015300027FAFA2000F0FCF80446002C2FD02046B1
:1015400001F058FC02282AD1204601F024FB06288D
:1015500020D2DFE800F0030B0F13171B2BA003F0C2
:101560002FFC002500202E49C87017E02DA003F0A5
:1015700027FC13E032A003F023FC0FE039A003F0B6
:101580001FFC0BE03FA003F01BFC07E046A003F0AC
:1015900017FC03E04FA003F013FC00BF00BF20487E
:1015A000C078401C1E49C87007A800F0C1FD07E0C4
:1015B0001B48C078401C1A49C8704DA003F000FCBD
:1015C0001748C078022801DD02F098FC28460BB0CD
:1015D00030BD000031313833393433323730000018
:1015E00031300000363235393231000050524F4927
:1015F000443A20257309415549463A202573094448
:10160000455649443A25730D0A0000005469707329
:101610003A09C1ACBDD3B3C9B9A60D0A0000000098
:10162000882700205741524E3A09C1ACBDD3CAA702
:10163000B0DCA3BAD0ADD2E9B4EDCEF30D0A000010
:101640005741524E3A09C1ACBDD3CAA7B0DCA3BAC8
:10165000B7C7B7A8B5C4636C69656E7469640D0AD1
:10166000000000005741524E3A09C1ACBDD3CAA791
:10167000B0DCA3BAB7FECEF1C6F7CAA7B0DC0D0A3C
:10168000000000005741524E3A09C1ACBDD3CAA771
:10169000B0DCA3BAD3C3BBA7C3FBBBF2C3DCC2EBB2
:1016A000B4EDCEF30D0A00005741524E3A09C1ACD9
:1016B000BDD3CAA7B0DCA3BAB7C7B7A8C1B4BDD35E
:1016C00028B1C8C8E7746F6B656EB7C7B7A8290D96
:1016D0000A0000004552523A09C1ACBDD3CAA7B0B6
:1016E000DCA3BACEB4D6AAB4EDCEF30D0A00000046
:1016F0005741524E3A094D5154545F5061636B65E6
:1017000074436F6E6E656374204661696C65640D29
:101710000A00000010B54FF480710348FEF743FD46
:1017200000200249088010BD871E0020CA0B00203F
:1017300070B50546002400BF00F044F980B90DA142
:101740000E48FEF747FD044654B13A212046FEF705
:1017500053FD044614B1641C204670BD0020FCE714
:10176000052004F04FF9281EA5F101018DB2E3D147
:1017700000BFF2E74950442C00000000871E002003
:1017800000B5A1B0FA2004F03DF9FFF7C3FF32A085
:1017900003F016FB03E04FF4967004F033F9C8220F
:1017A0002FA130A000F0C4F80028F4D12FA003F03E
:1017B00007FB03E04FF4967004F024F9C82228A137
:1017C0002DA000F0B5F80028F4D12FA003F0F8FA0E
:1017D00003E04FF4967004F015F9C82220A12DA063
:1017E00000F0A6F80028F4D12EA003F0E9FA802139
:1017F00001A8FEF7D8FC2DA32FA230A101A803F069
:10180000EFFA03E04FF4967004F0FCF8C82231A11F
:1018100001A800F08DF80028F4D130A003F0D0FA30
:10182000802101A8FEF7BFFC41F272732EA232A103
:1018300001A803F0D5FA03E04FF4FA7004F0E2F8DF
:10184000C82234A101A800F073F80028F4D133A015
:1018500003F0B6FA21B000BD41540D0A00000000AB
:101860004F4B000041540D0A0D00000043574D4FEF
:1018700044450D0A0000000041542B43574D4F448E
:10188000453D310D0A00000041542B435744484365
:10189000500D0A0041542B4357444843503D312CCE
:1018A000310D0A0043574A41500D0A00313233349A
:1018B00035363738000000004E45540041542B4364
:1018C000574A41503D222573222C222573220D0AAE
:1018D00000000000474F5420495000004349505336
:1018E000544152540D0A00003138332E3233302E19
:1018F00034302E333900000041542B4349505354A7
:101900004152543D22544350222C222573222C252F
:10191000640D0A00434F4E4E454354004553503822
:1019200032363620496E6974204F4B0D0A00000094
:101930002DE9F04105460E4614462846FEF766FCA2
:1019400087B23946284603F023FA0FE000F03AF850
:1019500048B931460948FEF73DFC20B1FFF7DAFEF1
:101960000020BDE8F0810A2004F04CF8201EA4F10C
:1019700001018CB2EAD10120F3E70000871E0020AC
:1019800030B589B005460C46FFF7C4FE224608A1D3
:1019900001A803F025FAC82209A101A8FFF7C8FF92
:1019A00018B92146284603F0F3F909B030BD00000C
:1019B00041542B43495053454E443D25640D0A0084
:1019C0003E0000000A48008808B901207047084816
:1019D000008808490988884203D10020044908800A
:1019E000F4E703480088034908800120EEE700007F
:1019F000CA0B0020CC0B0020044900E0521C11F857
:101A0000013B002BFAD1500870470000EC0A00207F
:101A100010B50446062C22D2DFE804F003080D12AC
:101A2000171C0121084601F039FF18E001210220AE
:101A300001F034FF13E00121042001F02FFF0EE03C
:101A40000121082001F02AFF09E00121102001F006
:101A500025FF04E00121202001F020FF00BF00BF8E
:101A600010BD70B504460D4616462046FFF7D0FF60
:101A700032462946204600F05AF8204600F001F888
:101A800070BD3EB50446204602F048FD0546062CD2
:101A900033D2DFE804F0030B131B232A4FF47A70D0
:101AA000ADF804004820ADF8000026E040F2E73031
:101AB000ADF804004720ADF800001EE04FF47A7046
:101AC000ADF804004820ADF8000016E040F2E63022
:101AD000ADF804004620ADF800000EE05920ADF846
:101AE00004004F20ADF8000007E040F2E730ADF809
:101AF00004004720ADF8000000BF00BF0020ADF893
:101B00000600ADF802008DF808006946284602F08C
:101B1000B3FC0121284602F021FB01221146284690
:101B200002F043FC0021284602F01EFB3EBDF8B542
:101B300006460C4615464FF4A06001F061FA26B146
:101B4000012E06D0022E0CD107E01C208DF80000DB
:101B500007E01D208DF8000003E01E208DF8000036
:101B600000BF00BF8DF801408DF8025001208DF8B4
:101B70000300684601F00CFAF8BD2DE9F041024679
:101B800000250026002000230024002791F803C030
:101B90000CF00F0591F803C00CF0100CBCF1000F15
:101BA00003D091F802C04CEA050591F800C0BCF1E1
:101BB000000F31D0146800202BE04FF0010C0CFA1C
:101BC00000F3B1F800C00CEA03069E4220D1830066
:101BD0004FF00F0C0CFA03F7BC4305FA03FC4CEA78
:101BE000040491F803C0BCF1280F06D14FF0010C9A
:101BF0000CFA00FCC2F814C00AE091F803C0BCF172
:101C0000480F05D14FF0010C0CFA00FCC2F810C0CF
:101C1000401C0828D1D31460B1F800C0BCF1FF0FFC
:101C200034DD546800202EE000F1080C4FF001086C
:101C300008FA0CF3B1F800C00CEA03069E4221D169
:101C400083004FF00F0C0CFA03F7BC4305FA03FCBA
:101C50004CEA040491F803C0BCF1280F05D100F14F
:101C6000080C08FA0CF8C2F8148091F803C0BCF113
:101C7000480F07D100F1080C4FF0010808FA0CF8E2
:101C8000C2F81080401C0828CED35460BDE8F08113
:101C9000F0B50A46002300240021002500F000468C
:101CA000B6F1004F02D11D4EF16901E01B4E716883
:101CB000C0F3034583B200F44016B6F5401F08D1C7
:101CC00021F07061154E766826F07066134F7E60C5
:101CD00012E000F48016B6F5801F06D1032606FA3E
:101CE00005F4A14341F0706106E0460D360103FAA8
:101CF00006F6B14341F0706122B1460D360103FA98
:101D000006F6314300F00046B6F1004F02D1034E13
:101D1000F16101E0014E7160F0BD00000000014082
:101D20000246002093680B400BB1012000E0002028
:101D30007047416170470161704700BFFEE70000D6
:101D400010B54FF4A06001F05BF9FFF755FE1E4996
:101D5000086003F035FE012200210220FFF781FE1A
:101D60004FF4E13002F016FF4FF4165002F062FF1C
:101D70004FF4E13002F0B6FF02F008F900F04AF942
:101D800000F06AF901F034FE142002F015F9FFF7B3
:101D900005F9FFF79BFA00F021F900F01BF801F0BC
:101DA000FDF9002001F0B5F9002001F0C0F902E0D2
:101DB000052003F027FE0549054801F003FF01282F
:101DC000F6D101F0A1F910BD9C0B0020EE0B002014
:101DD000E80B002008B50121102001F07FFD4FF431
:101DE0000050ADF8000028208DF8030069460D482A
:101DF000FFF7C3FE1F2000F0A7F8642003F002FEE7
:101E00001F2000F0A1F8642003F0FCFD1F2000F06B
:101E10009BF8642003F0F6FD0221084600F05AF812
:101E200008BD00000010014030B585B004460D46E5
:101E3000224605A1684602F0D3FF2946684600F015
:101E400007F805B030BD000025730D0A0000000042
:101E50002DE9F04105460E462846FEF7D7F987B230
:101E6000294619A002F0ACFF012E16D171031748C4
:101E7000FFF756FF88B900240CE000BF402114484A
:101E800002F070FC0028F9D0295D114802F037FDFE
:101E9000601C84B2BC42F0DD11E086B900240CE085
:101EA00000BF40210A4802F05DFC0028F9D0295DFE
:101EB000074802F024FD601C84B2BC42F0DD0A2019
:101EC00003F0A0FDBDE8F08125730A000010014079
:101ED0000044004030B585B004460D460A2C09DAAE
:101EE000224610A1684602F07BFF29466846FFF7AC
:101EF000AFFF14E0642C09DA22460DA1684602F017
:101F00006FFF29466846FFF7A3FF08E022460BA1B2
:101F1000684602F065FF29466846FFF799FF05B05D
:101F200030BD000041373A3030303025640D0A00B2
:101F300041373A30303025640D0A000041373A30DD
:101F40003025640D0A00000010B586B00446224614
:101F500004A101A802F044FF002101A8FFF778FFC7
:101F600006B010BD41463A25640D0A0010B504467E
:101F700014B101201749087016480078D0B120210B
:101F80001548FFF7CDFE20B140211348FFF7C8FEEA
:101F900080B900200F49087020210F48FFF7C0FECC
:101FA00008B9012010BD40210B48FFF7B9FE78B9F0
:101FB0000220F7E720210848FFF7B2FE012807D1E9
:101FC00040210548FFF7ACFE012801D10149087006
:101FD0000020E7E718000020000C014008B50121AF
:101FE000082001F07BFC2020ADF8000048208DF88F
:101FF000030069460648FFF7C0FD4020ADF8000029
:1020000048208DF8030069460148FFF7B6FD08BD7A
:10201000000C014008B501210C2001F05FFC1020EC
:10202000ADF800008DF8030003208DF8020069462A
:102030000648FFF7A2FD0220ADF8000069460448FB
:10204000FFF79BFD00200349086008BD000C01401C
:10205000000801409081214208B50121082001F0CB
:102060003DFC0120ADF8000048208DF803006946D2
:102070000648FFF782FD0220ADF8000048208DF8E9
:10208000030069460148FFF778FD08BD000C0140D8
:102090000020044909880A2291FBF2F1C1F5CD71B3
:1020A00088B27047A00B002010B51F48C07810B947
:1020B0001D48007990B31D480078192814DA1A4891
:1020C000407888B919480078401C184908700846BB
:1020D00001780120FFF720F814480078182822D151
:1020E0000120114948701EE01048007805281ADDCB
:1020F0000D484078012816D10C480078401E0B4945
:102100000870084601780120FFF706F807480078B4
:10211000062808D100200449487004E0FFE70F2199
:102120000120FEF7F9FF10BDEE0B0020AA0B0020E6
:1021300010B50446207B012802D1206802F064FE1D
:10214000002020606060A060207310BD0246002364
:1021500001230DE002F07F000870D2092AB108784F
:1021600040F080000870491C01E0184670475B1C75
:10217000042BEFDD4FF0FF30F8E7000070B5C0B082
:1021800004464FF480716846FEF70DF855A00088AC
:1021900020804FF480716846FEF705F85249886840
:1021A000FEF761FB05462A460B4650A1684602F041
:1021B00017FE69462046FEF701F84FF48071684625
:1021C000FDF7F1FF4849C868FEF74DFB05462A4672
:1021D0000B464AA1684602F003FE69462046FDF719
:1021E000EDFF4FF480716846FDF7DDFF3E48428AFF
:1021F00046A1684602F0F4FD69462046FDF7DEFF81
:102200004FF480716846FDF7CEFF4448C27844A180
:10221000684602F0E5FD69462046FDF7CFFF4FF422
:1022200080716846FDF7BFFF3C48827840A1684650
:1022300002F0D6FD69462046FDF7C0FF4FF48071DD
:102240006846FDF7B0FF2848827D3DA1684602F050
:10225000C7FD69462046FDF7B1FF4FF4807168461F
:10226000FDF7A1FF3A480068C2B23AA1684602F001
:10227000B7FD69462046FDF7A1FF4FF4807168461F
:10228000FDF791FF2548027935A1684602F0A8FDC7
:1022900069462046FDF792FF4FF480716846FDF7CE
:1022A00082FF01213148FFF73BFD05462A4630A158
:1022B000684602F095FD69462046FDF77FFF4FF422
:1022C00080716846FDF76FFF2CA1684602F088FD1B
:1022D00069462046FDF772FF2046FDF797FFC0B222
:1022E00040B070BD7B000000882700202274656D1F
:1022F00070223A22252E3166222C00002268756D4C
:1023000069223A22252E3166222C0000226C696750
:102310006874223A222564222C000000EE0B002073
:10232000227761726E696E67223A222564222C0040
:10233000226D75736963223A222564222C00000005
:10234000226D757369635F73223A222564222C0023
:102350001C812142226C6564223A222564222C00D1
:1023600022626564223A222564222C00000C01407E
:1023700022656174223A2225642200007D0000005B
:1023800070B504460E460025206898B901202073D8
:10239000304602F067FD20602068E0B100206060F8
:1023A000A66003E00020216848556D1CA068A84283
:1023B000F8D810E00220207303E00020216848557F
:1023C0006D1CA068A842F8D800206060A068B042E8
:1023D00001D20020206070BD2DE9FF5F07460D4649
:1023E00090463846FDF712FF86B22846FDF70EFFED
:1023F0001FFA80FA4FF00009B01D02F033FD0446C9
:102400001CB9012004B0BDE8F09FB11D2046FDF7C6
:10241000CAFE12A0016821608088A0803246394639
:102420002046FDF708FF2846FDF7F0FE8346012011
:10243000002100915B462A46CDE902080191214620
:102440000A2000F05FF910B94FF0000901E04FF0E9
:102450000109204602F0D8FC4846D3E72463727392
:10246000702F00002DE9FF4F83B082468B469146C6
:10247000159C0025002002900F2701904846FDF78B
:10248000C5FE0FFA80F8B9F1000F03D1012007B0A3
:10249000BDE8F08F08F10200384487B2109808B107
:1024A00045F00205129878B145F004051298FDF741
:1024B000ADFEC0B202901398FDF7A8FE0146029847
:1024C000001D0844384487B2119820B1012804D077
:1024D000022808D104E000BF07E045F00C0504E045
:1024E00045F0140501E00220D1E700BF149808B1BF
:1024F00045F02405BAF1000F02D0BBF1000F01D165
:102500000320C4E745F0C0055046FDF77FFE0646B0
:102510005846FDF77BFE3044001D384487B23946EB
:102520002046FFF72DFF206808B90420AFE73946A1
:102530002068FDF738FE10216268501C606020683A
:102540008154D4E90023D118781FFFF7FFFD00B2B2
:1025500001900198002804DA2046FFF7E9FD0520E4
:1025600095E7616801980844606000216268501C2A
:1025700060602068815404216268501C606020689B
:1025800081544D216268501C606020688154512143
:102590006268501C60602068815454216268501C3D
:1025A0006060206881546268501C606020688154BB
:1025B00004216268501C6060206881546168481C76
:1025C0006060206845540698010A6268501C60608B
:1025D000206881540698C1B26268501C606020680F
:1025E0008154C8F307216268501C606020688154E0
:1025F0006268501C6060206800F80280D4E9001214
:10260000881842464946FDF716FE606840446060FF
:1026100005F00400B8B30026139808B938A0139049
:102620001298FDF7F3FD86B2310A6268501C6060B3
:10263000206881546268501C606020688654D4E928
:102640000012881832461299FDF7F5FD6068304493
:1026500060601398FDF7DAFD86B2310A6268501C9B
:102660006060206881546268501C606020688654F5
:10267000D4E90012881832461399FDF7DCFD606832
:102680003044606000BF05F08000C8B15046FDF7DF
:10269000BDFD86B2310A6268501C606020688154BA
:1026A0006268501C606020688654D4E90012881863
:1026B00032465146FDF7BFFD60683044606000BFA0
:1026C00005F04000C8B15846FDF7A0FD86B2310ABA
:1026D0006268501C6060206881546268501C6060B1
:1026E00020688654D4E90012881832465946FDF70E
:1026F000A2FD60683044606000BF0020C7E60000B3
:10270000000000002DE9FF4F83B0834690469946B4
:10271000139C002600250020029001900027BBF1A9
:10272000000F03D1012007B0BDE8F08F00250AE0BB
:102730000498405D232803D00498405D2B2801D1E4
:102740000220F0E76D1C0498405D0028F0D147F0AE
:102750003007119808B147F0010705EB0900861C06
:10276000109820B1012804D002280AD105E000BF4A
:1027700009E047F00207B61C05E047F00407B61C65
:1027800001E00320CFE700BF98F80000022822D123
:102790004FF0000A00BF50460AF1010A18F8000085
:1027A0007D28F8D1AAF1030A0AF1070002900298E5
:1027B000A9EB000AF01CA0EB0A012046FFF7E0FDA0
:1027C000206808B90420AEE7F21CA2EB0A012068D9
:1027D000FDF7E9FC0BE0F11C2046FFF7D1FD206876
:1027E00008B904209FE7F11C2068FDF7DCFC616854
:1027F000481C606020684754D4E9000281183046C4
:10280000FFF7A4FC01900198002804DA2046FFF7A6
:102810008FFC052087E76168019808446060C5F374
:1028200007216268501C6060206881546268501CF7
:10283000606020688554D4E9001288182A460499FB
:10284000FDF7F9FC606828446060109860B14FEAB9
:102850001B216268501C6060206881546268501CB3
:102860006060206800F802B0B8F1000F19D098F845
:10287000000002280BD1D4E9001288184146029AC0
:10288000FDF778FC616802980844606009E0D4E9CB
:10289000001288184A464146FDF76CFC60684844BF
:1028A000606000203FE770B505460C4604212046D5
:1028B000FFF766FD206808B9012070BD40216268FD
:1028C000501C60602068815402216268501C606066
:1028D0002068815429126268501C6060206881540D
:1028E0006268501C6060206885540020E5E770B580
:1028F00005460C4604212046FFF742FD206808B932
:10290000012070BD70216268501C60602068815495
:1029100002216268501C606020688154291262683C
:10292000501C6060206881546268501C60602068A0
:1029300085540020E5E770B505460C460421204685
:10294000FFF71EFD206808B9012070BD50216268A4
:10295000501C60602068815402216268501C6060D5
:102960002068815429126268501C6060206881547C
:102970006268501C6060206885540020E5E770B5EF
:1029800005460C4604212046FFF7FAFC206808B9EA
:10299000012070BD62216268501C60602068815413
:1029A00002216268501C60602068815429126268AC
:1029B000501C6060206881546268501C6060206810
:1029C00085540020E5E72DE9FF5F804617469946CC
:1029D0000E9C0026B246B3460025B8F1000F03D185
:1029E000012004B0BDE8F09F0BE057F8250008B9BE
:1029F0000220F6E757F82500FDF708FC0644681C9E
:102A0000C5B24D45F1DB09EB4900801C00EB060A1D
:102A10000AF105012046FFF7B3FC206808B903203E
:102A2000DFE782216268501C606020688154D4E92D
:102A3000000281185046FFF789FB0FFA80FBBBF1BB
:102A4000000F04DA2046FFF773FB0420C9E7606833
:102A5000584460604FEA18216268501C606020682A
:102A600081546268501C6060206800F80280002574
:102A700024E057F82500FDF7C9FB0646C6F30721F9
:102A80006268501C6060206881546268501C6060FD
:102A900020688654D4E90023D01857F82510324610
:102AA000FDF7C9FB6068304460600198C1B262689C
:102AB000501C606020688154681CC5B24D45D8DB4D
:102AC00000208EE7F0B504460D462646012300207F
:102AD0001060002114E0775C07F07F07106807FBA7
:102AE00003001060705C00F0800008B9481CF0BD65
:102AF000DB01B3F5001F02D36FF00100F7E7491CBB
:102B0000A942E8DB4FF0FF30F1E72DE9F8438046BA
:102B10000C4615461E462F2108F10600FDF76CFBFA
:102B200007460020009017B90120BDE8F8837F1CFC
:102B30006A46042108F10100FFF7C4FF252002F0D6
:102B400091F92060206808B90220EEE7252120686D
:102B5000FDF729FB242239462068FDF70BFB2437BB
:102B600000982C3830803188481C02F07BF92860AE
:102B7000286820B9206802F047F90320D5E7328899
:102B8000511C2868FDF70FFB328839462868FDF78D
:102B9000F1FA0020C9E701464878022801D0012057
:102BA0007047887810B18878012801D1C878F7E794
:102BB000FF20F5E72DE9FC5F81460D4614461E46D1
:102BC000DDE90C8B99F8000000F00F0A002001905D
:102BD0000AF008000090CAF341008BF8000001AA37
:102BE000042109F10100FFF76DFF4844471C0198DB
:102BF000022802D30AF0010010B1FF20BDE8FC9FBB
:102C00007878397840EA012020802088801C01995A
:102C1000884201D9FF20F1E754A1B81CFDF7DAFA88
:102C200008B10F20EAE79BF8000020B101283DD051
:102C3000022877D13BE0009808B1FF20DEE7218829
:102C4000481C02F00FF92860286808B9FF20D5E772
:102C50002288511C2868FDF7A6FA2288B91C28682A
:102C6000FDF788FA0198801E2188401AA8F8000014
:102C7000B8F80010481C02F0F5F83060306820B950
:102C8000286802F0C1F8FF20B8E7B8F80020511C0E
:102C90003068FDF788FAB8F80020B4F800C0BB1C13
:102CA0000CEB03013068FDF765FA4FE000BF2088A8
:102CB000801C0199884201D9FF209FE72088C01C11
:102CC000395C2088801C385C41EA00210E98018024
:102CD0000E9808B9FF2091E72188481C02F0C2F83D
:102CE0002860286808B9FF2088E72288511C2868D6
:102CF000FDF759FA2288B91C2868FDF73BFA0198BC
:102D0000001F2188401AA8F80000B8F80010481CDD
:102D100002F0A8F83060306828B9286802F074F82A
:102D2000FF206BE710E0B8F80020511C3068FDF779
:102D30003AFAB8F80020B4F800C03B1D0CEB0301D0
:102D40003068FDF717FA01E0FF2057E700BF2B219D
:102D50002846FDF751FA20B923212846FDF74CFA01
:102D600008B1FF204AE7002048E7000024637265AD
:102D70007100000001464878022801D00120704708
:102D8000887820B9C8780A2801D10020F7E7012007
:102D9000F5E701464878022801D00120704788787D
:102DA00020B9C8780A2801D10020F7E70120F5E70B
:102DB00001464878022801D001207047887820B960
:102DC000C8780A2801D10020F7E70120F5E702467C
:102DD0005078022801D0012070479078B0EB112F75
:102DE00005D1D078CBB2984201D10020F4E7012080
:102DF000F2E70000F8B50446FF2720780511012D01
:102E000001DB0E2D01DD3846F8BD032D24D1002055
:102E100000906A460421601CFFF754FE2044461CC3
:102E20000098022803D3207800F0010008B1FF20A9
:102E3000EAE77078317840EA0120801C00998842E6
:102E400001D9FF20E0E706A1B01CFDF7C3F908B1E6
:102E50000F2700E0032700E02F463846D4E70000A4
:102E600024637265710000000146FF208A78A2B9D0
:102E7000CA78142A11D10A7932B1012A05D0022A5E
:102E800004D0802A06D103E000BF00BF002003E089
:102E9000012001E0022000BF00BF70470146012071
:102EA0008A781AB9CA781E2A00D10020704700BF5C
:102EB000FEE7000010B5A0B0044680216846FDF78B
:102EC00072F911A00088208080216846FDF76BF917
:102ED00001220EA1684601F083FF69462046FDF7F6
:102EE0006DF980216846FDF75EF90DA1684601F095
:102EF00077FF69462046FDF761F92046FDF786F920
:102F0000C0B220B010BD00007B00000022636865E5
:102F1000636B5F646576696365223A2225642200EB
:102F20007D00000010B5A0B0044680216846FDF782
:102F30003AF911A00088208080216846FDF733F916
:102F400001220EA1684601F04BFF69462046FDF7BD
:102F500035F980216846FDF726F90BA1684601F096
:102F60003FFF69462046FDF729F92046FDF74EF957
:102F7000C0B220B010BD00007B0000002274696D5B
:102F800065223A22256422007D000000704700007F
:102F900070B5002100230F22C47804B3154C2468B7
:102FA00004F4E064C4F5E064210AC1F10403CA40FA
:102FB000447804FA03F184781440214309010E4C4B
:102FC0000678A155047804F01F050124AC4005786B
:102FD0006D11AD0005F1E025C5F8004109E0047868
:102FE00004F01F050124AC40044D0678761145F825
:102FF000264070BD0CED00E000E400E080E100E060
:1030000002490143024A1160704700000000FA05BE
:103010000CED00E010B500F077F821A1244801F094
:10302000DFFE234A0021084600F046F921A222A132
:103030001F4801F0D5FE1E4A0221002000F03CF995
:1030400022A225A11A4801F0CBFE194A0421002032
:1030500000F032F925A1164801F0C2FE144A0621FB
:10306000002000F029F9FEF78BFB03E04FF4967087
:1030700002F0C8FCFEF73AFA0028F7D103E04FF45B
:10308000967002F0BFFC01211D4800F0ABFE002845
:10309000F5D13C201B49087000F036F810BD000047
:1030A0002DC7EBB4F2BFAA57494649C8C8B5E300DB
:1030B0004C1400204E4554002DC3FBB3C63A257373
:1030C0002020202020202020200000003132333416
:1030D00035363738000000002DC3DCC2EB3A2573CB
:1030E0002020202020202020200000002DC6B5C256
:1030F000CA3A20322E342047487A2020200000008F
:1031000000000020E40B002010B5002000F025F89E
:1031100010BD10B504461CB90021A62000F07EF9B0
:10312000012C03D10021A72000F078F910BD10B5C3
:1031300004463CB90021C82000F070F90021A1200C
:1031400000F06CF9012C07D10021C02000F066F9D5
:103150000021A02000F062F910BD70B506460024E1
:1031600019E004F1B001C8B2002100F057F90021C4
:10317000084600F053F90021102000F04FF9002517
:1031800005E00121304600F049F9681CC5B2822DE6
:10319000F7DB601CC4B2082CE3DB70BD08B501216D
:1031A000082000F09BFB4FF44C50ADF800001020BD
:1031B0008DF8030003208DF8020069463D48FEF7B4
:1031C000DCFC4FF44C513B48FEF7B5FD0021AE202E
:1031D00000F024F90021084600F020F90021102019
:1031E00000F01CF90021402000F018F90021812096
:1031F00000F014F90021CF2000F010F90021A120E7
:1032000000F00CF90021C82000F008F90021A620E8
:1032100000F004F90021A82000F000F900213F206F
:1032200000F0FCF80021D32000F0F8F80021084657
:1032300000F0F4F80021D52000F0F0F80021802003
:1032400000F0ECF80021D92000F0E8F80021F1208E
:1032500000F0E4F80021DA2000F0E0F8002112206C
:1032600000F0DCF80021DB2000F0D8F8002140203D
:1032700000F0D4F80021202000F0D0F80021022036
:1032800000F0CCF800218D2000F0C8F800211420B7
:1032900000F0C4F80021A42000F0C0F80021A6200E
:1032A00000F0BCF80021AF2000F0B8F8FFF72CFFC9
:1032B00008BD0000000C01402DE9F0470746884694
:1032C0001646002584E03078A02845DD00253CE046
:1032D000702F04DD002708F1020000F0FF083078AD
:1032E0003E4911F8151088422ED17078012101EB6A
:1032F00045013A4A515C884226D14146384600F0A1
:1033000077F8002407E004EB4511354A505C0121B1
:1033100000F084F8641C102CF5D308F10100C1B250
:10332000384600F065F8002408E004EB4511103140
:103330002B4A505C012100F071F8641C102CF4D36E
:1033400007F11000C7B204E06D1C264800688542F2
:10335000BED300BFB61C3BE07A2F04DD002708F186
:10336000020000F0FF0831781F48FCF745FF814656
:10337000B9F1000F2BD04146384600F039F800244F
:103380000AE099F80010203904EB0111174A505C4B
:10339000012100F043F8641C082CF2D308F101006D
:1033A000C1B2384600F024F800240BE099F8001070
:1033B000203904EB011108310C4A505C012100F066
:1033C0002DF8641C082CF1D307F10800C7B2761C55
:1033D000307800287FF477AFBDE8F087EC0A002052
:1033E0000C0600209C0B00203B0B00201C00002042
:1033F00070B504460D4605F1B001C8B2002100F0D9
:103400000DF8102141EA1410002100F007F804F033
:103410000F00002100F002F870BD000070B50446F6
:103420000E462EB14FF480511C48FEF784FC04E098
:103430004FF480511948FEF77CFC4FF400511748B7
:10344000FEF777FC00251BE04FF480711348FEF770
:1034500070FC04F0800028B14FF400710F48FEF7B3
:103460006AFC04E04FF400710C48FEF762FC4FF474
:1034700080710A48FEF75FFC6006040E681CC5B246
:10348000082DE1DB4FF400510448FEF754FC4FF4E3
:1034900080510248FEF74FFC70BD0000000C014057
:1034A00070B58CB006460020089009900A900B90E9
:1034B0000790069005900490002403900025304664
:1034C000FFF798FC0446E01E0D2870D2DFE800F0FC
:1034D00028707B93ADCDB5CDC1CDCDCD070004AB6C
:1034E00007AA06A93046FFF710FB0546BDB9BDF88F
:1034F00010306BA0DDE9061201F062FC08AADDE9DC
:103500000601FEF769FF50B96EA001F059FC099A57
:1035100091B20898FEF734FA08A8FEF709FEA7E072
:103520006E4803A904AA07ABCDE90021029005AAC1
:1035300006A93046FFF73EFB0546002D36D1BDF803
:1035400010000090BDF8142065A0DDE9061301F01D
:1035500037FC9DF80C00012802D0022824D111E08C
:1035600008A95E480088FFF79EF950B96BA001F0EA
:1035700027FC099A91B20898FEF702FA08A8FEF70C
:10358000D7FD12E008A955480088FFF7D4F950B9D3
:1035900068A001F015FC099A91B20898FEF7F0F9BD
:1035A00008A8FEF7C5FD00E000BF00BF60E05CE0DA
:1035B0003046FFF7DFFB10B964A001F001FC3C20AE
:1035C0006A49087054E03046FFF7F2FB90B968A0F2
:1035D00001F0F6FB08A90A20FFF7D1F950B96AA05B
:1035E00001F0EEFB099A91B20898FEF7C9F908A814
:1035F000FEF79EFD3CE0394801883046FFF7E7FBC7
:1036000090B967A001F0DCFB08A90A20FFF76FF969
:1036100050B969A001F0D4FB099A91B20898FEF75D
:10362000AFF908A8FEF784FD22E03046FFF7B1FBB2
:1036300010B968A001F0C4FB1AE03046FFF714FC93
:1036400018B96AA001F0BCFB02E06FA001F0B8FB62
:103650000EE03046FFF722FC18B972A001F0B0FB73
:1036600002E077A001F0ACFB02E04FF0FF3500BFB5
:1036700000BFFEF74FF8681C08B90CB070BD079882
:1036800010B1079802F090FA0F2C01D0032C05D14D
:10369000069801F0B9FB079801F0B6FB00BFECE714
:1036A000636D6469643A2025732C207265713A2039
:1036B00025732C207265715F6C656E3A2025640D50
:1036C0000A000000546970733A0953656E64204320
:1036D0006D64526573700D0A00000000E60B002057
:1036E000746F7069633A2025732C20746F7069635E
:1036F0005F6C656E3A2025642C207061796C6F6177
:10370000643A2025732C207061796C6F61645F6C62
:10371000656E3A2025640D0A00000000546970733C
:103720003A0953656E64205075626C697368416331
:103730006B0D0A00546970733A0953656E6420502A
:1037400075626C6973685265630D0A005469707321
:103750003A094D515454205075626C697368205376
:10376000656E64204F4B0D0A00000000E40B002042
:10377000546970733A09526576205075626C6973AA
:10378000685265630D0A0000546970733A09536505
:103790006E64205075626C69736852656C0D0A0026
:1037A000546970733A09526576205075626C69737A
:1037B0006852656C0D0A0000546970733A095365CC
:1037C0006E64205075626C697368436F6D700D0A8A
:1037D00000000000546970733A09526576205075F4
:1037E000626C697368436F6D700D0A005469707381
:1037F0003A094D515454205375627363726962657E
:10380000204F4B0D0A000000546970733A094D5166
:1038100054542053756273637269626520457272F5
:103820000D0A0000546970733A094D5154542055E3
:103830006E537562736372696265204F4B0D0A00A7
:10384000546970733A094D51545420556E53756242
:10385000736372696265204572720D0A0000000090
:103860007047000001460020034A506820F44040A1
:1038700008435060704700000010024029B1064A1A
:1038800052690243044B5A6104E0034A526982437D
:10389000014B5A61704700000010024029B1064AEE
:1038A000D2690243044BDA6104E0034AD2698243DD
:1038B000014BDA61704700000010024029B1064A4E
:1038C00012690243044B1A6104E0034A12698243FD
:1038D000014B1A61704700000010024029B1064AEE
:1038E00092690243044B9A6104E0034A926982435D
:1038F000014B9A61704700000010024029B1064A4E
:10390000D2680243044BDA6004E0034AD26882437F
:10391000014BDA60704700000010024030B5002112
:103920000022002400232D4D6D6805F00C0121B10B
:10393000042905D0082923D105E0294D056022E09E
:10394000274D05601FE0254D6D6805F47012234D6D
:103950006D6805F48034022505EB92421CB9214DB7
:10396000554305600BE01D4D6D6805F400351DB134
:103970001C4D5543056002E0194D5543056002E0BA
:10398000174D056000BF00BF144D6D6805F0F001D4
:103990000909154D6B5C0568DD4045600F4D6D688C
:1039A00005F4E061090A104D6B5C4568DD408560F7
:1039B0000A4D6D6805F46051C90A0B4D6B5C456892
:1039C000DD40C560054D6D6805F44041890B074D2C
:1039D0006B5CC568B5FBF3F5056130BD00100240B6
:1039E00000127A0000093D00B60B0020C60B002033
:1039F00008B501210820FFF771FF8020ADF8000015
:103A000010208DF8030003208DF80200694602485B
:103A1000FEF7B3F808BD0000000C014070B50025AA
:103A2000002427E000BF4FF400411448FEF778F966
:103A30000028F8D0282002F00BF84FF400410F487E
:103A4000FEF76EF901280ED100BF4FF400410B487C
:103A5000FEF766F90128F8D0C4F10701012088407B
:103A6000C0B2054304E0C4F107010120884085434A
:103A7000601CC4B2082CD5DB284670BD000801408C
:103A800010B50446FDF74EFC4FF400412648FEF702
:103A900050F9122001F0B6FF4FF400412248FEF722
:103AA0004AF91E2001F0D4FFFDF72CFC4FF4004131
:103AB0001D48FEF735F988BB00BF4FF400411A4896
:103AC000FEF72EF90028F8D000BF4FF40041164849
:103AD000FEF726F90128F8D0FFF7A0FF2070FFF7C6
:103AE0009DFF6070FFF79AFFA070FFF797FFE070EF
:103AF000FFF794FF2071FDF715FC4FF400410A48D1
:103B0000FEF719F9207861780844A1780844E17833
:103B100008442179884202D1012010BD01E0002033
:103B2000FBE70020F9E70000000801402DE9FC4711
:103B300082462148FFF7A4FF1F49C878FCF767FEBB
:103B400006461E4A1E4BFCF7F0FD04460D461A4978
:103B50008878FCF75CFE804622462B46FCF73EFD4B
:103B6000CDE90001FCF7C2FECAF808001249487806
:103B7000FCF74DFE0646114A114BFCF7D6FD0446F4
:103B80000D460D490878FCF742FE804622462B463A
:103B9000FCF724FDCDE90001FCF7A8FECAF80C00F3
:103BA000FEF776FAAAF8120000F0E6F8AAF8140078
:103BB0000120BDE8FC870000F50B00207B14AE4718
:103BC000E17A843F0246C8205080072010804FF4DD
:103BD000487090800120014B98757047882700201D
:103BE0007047000030B5C9B00446002045904690AB
:103BF0004790489000254FF4807105A8FCF7D3FA50
:103C0000012C06D0022C09D0032C0CD0042C14D18A
:103C10000EE005A8FEF7B2FA05460FE005A8FFF78B
:103C200081F905460AE005A8FFF744F9054605E0D5
:103C300005A8FFF73FF9054600E000BF00BFCDB182
:103C400045A801210022CDE900122B4605AACDE9A5
:103C5000021009A10A20FEF755FD40B9469A91B21B
:103C60004598FDF78DFE45A8FEF762FA02E006A032
:103C700001F0A6F849B030BD626162796170705F91
:103C8000746F7069630000005741524E0D0A0000C6
:103C900010B500F001F810BD0CB5002001900090A7
:103CA0003348006840F480303149086000BF304834
:103CB000006800F4003000900198401C01900098CA
:103CC00018B90198B0F5A06FF1D12948006800F447
:103CD000003010B10120009001E000200090009819
:103CE000012843D12348006840F0100021490860B2
:103CF0000846006820F0030008600846006840F0AD
:103D0000020008601A48406819494860084640683F
:103D100048600846406840F4806048600846406853
:103D200020F47C1048600846406840F4E810486081
:103D30000846006840F08070086000BF0C480068CA
:103D400000F000700028F9D00948406820F0030016
:103D5000074948600846406840F00200486000BFDC
:103D60000348406800F00C000828F9D10CBD0000A1
:103D700000100240002002400020034949880A2226
:103D800091FBF2F188B27047A00B002010B501231F
:103D90004FF47A720D490E4802F0E2FB01236422CF
:103DA0000C490D4802F0DCFB01234FF47A620B4909
:103DB0000B4802F0D5FB064802F002FC064802F070
:103DC000FFFB074802F0FCFB10BD00001D6400086B
:103DD0001C140020256400082C14002045650008F0
:103DE0003C140020F0B585B004460D4600260020A6
:103DF000019002900390049006E054F826101FA052
:103E000000F0DEFF701CC6B2AE42F6DB01A82B4606
:103E10002246022100901420FEF7D5FD00282BD168
:103E2000029A91B20198FDF7ABFD4FF4FA70FDF7DD
:103E30007FFC07463846FEF7DDFF09280AD115A0AA
:103E400000F0BEFF01A8FEF773F900201849C87002
:103E500005B0F0BD17A000F0B3FF01A8FEF768F9A8
:103E60001348C078401CC0B21149C870022801DD57
:103E700000F044F80120EBE70120E9E75375627395
:103E8000637269626520546F7069633A2025730D0F
:103E90000A000000546970733A094D51545420537C
:103EA0007562736372696265204F4B0D0A000000F2
:103EB00088270020546970733A094D515454205397
:103EC0007562736372696265204572720D0A000043
:103ED000042808D14FF0E021096941F004014FF0B6
:103EE000E022116107E04FF0E021096921F00401AF
:103EF0004FF0E0221161704770470000012080F30D
:103F0000138800BF00BF0748006800F4E06006495E
:103F10000843001D03490860BFF34F8F00BF00BF77
:103F2000FEE700000CED00E00000FA0510B51348B4
:103F3000006840F0010011490860084640681049D7
:103F400008400E494860084600680E4908400B4981
:103F500008600846006820F4802008600846406831
:103F600020F4FE0048604FF41F008860FFF790FEC9
:103F70004FF000600449086010BD000000100240CE
:103F80000000FFF8FFFFF6FE08ED00E010B501218C
:103F90000820FFF7A3FC01210846FFF79FFC012141
:103FA0000348FDF775FE01210248FDF771FE10BDC3
:103FB000000430000002300010B588B00446012132
:103FC0000220FFF76BFC01210420FFF787FC402053
:103FD000ADF81C0018208DF81F0003208DF81E007E
:103FE00007A92548FDF7C9FD244800F0D9F8C720E6
:103FF000ADF8140041F61F40ADF810000020ADF8F8
:104000001600ADF812008DF8180004A91B4800F046
:1040100033FA7020ADF800000120ADF80200000274
:10402000ADF80C000020ADF808006020ADF80000ED
:104030000020ADF80E000820ADF80A000420ADF80D
:10404000040069460D4800F0B9F908210B4800F05A
:1040500001FA0121094800F093F80121074800F016
:1040600071F80121054800F07FF80F21034800F0A6
:10407000FAF908B010BD000000080140000400403B
:1040800010B50121284800F07FF900284AD02748C0
:104090000068401C2549086002F0BAFA234800680D
:1040A0001921B0FBF1F201FB120010B900202049E8
:1040B00008701E4800680A21B0FBF1F201FB1200F3
:1040C000B8B91C480068401C1A4908601A480078B2
:1040D00078B91A480088002804DD18480088401C78
:1040E00016490880154800880A2802DD0120124977
:1040F00008700E4800684FF47A71B0FBF1F201FBD2
:10410000120058B90020094908600D4800780028BD
:1041100004DD0B480078401E09490870012102485F
:1041200000F01FF810BD000000080040040C002043
:10413000080C00200C0C0020100C00200A0C0020A1
:10414000E40B002021B1028842F08002028004E0EA
:1041500002884FF67F731A4002807047CA4302827A
:104160007047CA430282704721B1028842F00102BF
:10417000028004E002884FF6FE731A400280704706
:1041800031B1B0F8442042F40042A0F8442005E0E8
:10419000B0F84420C2F30E02A0F84420704700009B
:1041A00010B504466848844208D10121C014FFF7C5
:1041B000A5FB0021E014FFF7A1FBC4E0B4F1804FA0
:1041C00008D101210846FFF779FB00210120FFF704
:1041D00075FBB8E05D48844208D101210220FFF759
:1041E0006DFB00210220FFF769FBACE058488442D8
:1041F00008D101210420FFF761FB00210420FFF713
:104200005DFBA0E05348844208D101210820FFF75C
:1042100055FB00210820FFF751FB94E04E488442F3
:1042200008D101211020FFF749FB00211020FFF7E2
:1042300045FB88E04948844208D101212020FFF74E
:104240003DFB00212020FFF739FB7CE044488442FD
:1042500008D101214014FFF751FB00216014FFF742
:104260004DFB70E03F48844209D10121C804FFF7AB
:1042700045FB00214FF40020FFF740FB63E03A4884
:10428000844209D101210805FFF738FB00214FF4D2
:104290008010FFF733FB56E03448844209D10121F6
:1042A0004805FFF72BFB00214FF40010FFF726FB1A
:1042B00049E02F48844208D101214020FFF7FEFA4F
:1042C00000214020FFF7FAFA3DE02A48844208D155
:1042D00001218020FFF7F2FA00218020FFF7EEFA9B
:1042E00031E02548844208D101218015FFF7E6FA24
:1042F0000021A015FFF7E2FA25E02048844209D109
:1043000001210804FFF7FAFA00214FF48030FFF78B
:10431000F5FA18E01A48844209D101214804FFF750
:10432000EDFA00214FF40030FFF7E8FA0BE01548F2
:10433000844208D101218804FFF7E0FA00214FF4FC
:104340008020FFF7DBFA10BD002C01400004004084
:1043500000080040000C0040001000400014004025
:1043600000340140004C0140005001400054014025
:1043700000180040001C00400020004000400140A8
:10438000004401400048014030B5024600200023AF
:104390000024158A05EA0103958905EA010413B191
:1043A0000CB1012000E0002030BD1AB183890B431D
:1043B000838102E083898B438381704770B5002439
:1043C00000220023058C4FF6FE7635400584028CD2
:1043D0008388048B4FF68F752C40B51E2C400D88BA
:1043E0002C43751E2A400D892A434D882A43144DBB
:1043F000A8420BD0134DA84208D0134DA84205D0B7
:10440000124DA84202D0124DA84213D14FF6F775B3
:104410002A404D892A434FF6FB752A408D882A434E
:104420004FF6FF652B404FF6FF552B408D892B43F0
:10443000CD892B4383800483CD888586028470BD1B
:10444000002C014000340140004001400044014084
:10445000004801400A460021018B4FF6F7731940CE
:1044600011430183704781867047018770478187B8
:104470007047A0F840107047002202881D4B9842F8
:104480000ED01D4B98420BD0B0F1804F08D01B4B83
:10449000984205D01A4B984202D01A4B984204D148
:1044A0004FF68F731A404B881A43174B984207D028
:1044B000164B984204D04FF6FF431A40CB881A435C
:1044C00002808B8883850B8803850A4B98420BD02A
:1044D000094B984208D00E4B984205D00D4B98429C
:1044E00002D00D4B984201D10B7A038601238382BF
:1044F00070470000002C01400034014000040040DF
:1045000000080040000C0040001000400014004073
:10451000004001400044014000480140014602299A
:1045200001D1024800BF00BF7047000000080040F2
:1045300010B540F225511D4800F021F910B31B4879
:1045400000F0D8F9C4B21A48008800F40040C8B995
:104550001748008800F4804060B10A2C03D0002086
:104560001349088020E01248008840F400401049B8
:10457000088019E00D2C06D10D48008840F48040D9
:104580000B49088010E00A480088C0F30D00094973
:104590000C5407480088401C0549088008460088DC
:1045A000C72801DD0020088010BD00000038014050
:1045B000B40B0020BF15002010B540F22551204853
:1045C00000F0DDF8002839D01D4800F093F9C4B29E
:1045D000242C02D100201B4908801A480188008839
:1045E000401C184A108018484454007824281ED1D2
:1045F000154800794D281AD113484079432816D11F
:104600000A2C14D150211148FBF7CDFD0D4802882A
:104610000D490E48FBF7AEFD01200C4981F8500012
:10462000002008490880C8210748FBF7BCFD054861
:104630000088C82802DBC8200249088010BD00009D
:1046400000440040A60B0020F71400207E14002038
:1046500010B540F225510E4800F091F8B0B10D4868
:104660000088FF2802D900200A4908800848001D58
:104670000088C1B2074802880088401C054B18809A
:10468000054881542021024800F008F810BD0000C0
:1046900000480040CA0B0020871E002001F4007271
:1046A000B2F5007F00D100BFCA430280704721B13C
:1046B000828942F40052828104E082894DF6FF73C0
:1046C0001A4082817047000010B504462048844299
:1046D00009D101218803FFF711F900214FF480402F
:1046E000FFF70CF932E01B48844209D1012148044C
:1046F000FFF7E4F800214FF40030FFF7DFF825E082
:104700001548844209D101218804FFF7D7F8002118
:104710004FF48020FFF7D2F818E01048844209D106
:104720000121C804FFF7CAF800214FF40020FFF769
:10473000C5F80BE00A48844208D101210805FFF7BB
:10474000BDF800214FF48010FFF7B8F810BD00004D
:10475000003801400044004000480040004C004048
:104760000050004002460020B1F5007F00D100BF9C
:1047700013880B400BB1012000E00020704770B59A
:104780000246002400230025002040F66A16B142AC
:1047900000D100BFC1F3421501F01F03012606FA44
:1047A00003F3012D02D19689334006E0022D02D198
:1047B000168A334001E0968A33400C12012606FA2D
:1047C00004F41688344013B10CB1012000E000203D
:1047D00070BDF0B50346002400260025002040F6F9
:1047E0006A17B94200D100BF1846C1F3421401F064
:1047F0001F06012707FA06F5012C01D10C3004E051
:10480000022C01D1103000E014301AB107682F4398
:10481000076002E00768AF430760F0BD2DE9F0478D
:1048200086B005460E460024A24600BFA1460027DA
:10483000B08900B100BF2F462C8A4CF6FF700440AF
:10484000F08804432C82AC894EF6F3100440B08803
:1048500031890843718908430443AC81AC8A4FF61F
:10486000FF400440B0890443AC8201A8FFF756F82A
:104870001F48874202D1DDF810A001E0DDF80CA04E
:10488000A88900F4004040B10AEBCA0000EB0A100E
:1048900031684900B0FBF1F807E00AEBCA0000EB11
:1048A0000A1031688900B0FBF1F86420B8FBF0F021
:1048B00004012009642101FB1089A88900F400404B
:1048C00040B1322000EBC900B0FBF1F000F007006E
:1048D000044308E0322000EB09106421B0FBF1F042
:1048E00000F00F0004432C8106B0BDE8F087000003
:1048F0000038014001468888C0F308007047C1F3C2
:10490000080282807047000010B53E48808AB0F5EA
:10491000C87F03DA01203C49887102E000203A494F
:10492000887102213948FDF7FBF938B9364880799A
:1049300020B101203449C8701E20487132484079A6
:1049400001280CDD02213148FDF7EAF910B12E48AB
:10495000807920B101202C49C8701E204871294857
:10496000007C78B92748408A642803DA0120284966
:1049700008600BE02348408AFA2807DD002024491C
:10498000086003E01F48007C2149086001211F489E
:10499000FDF7C6F9012816D11B48C078012803D1BC
:1049A00019484079002803DC17480079012802D112
:1049B000FDF77AFB0EE00F20164908700F21012049
:1049C000FCF7AAFB06E00F20124908700F21012016
:1049D000FCF7A2FB0B48007890B10A480078012848
:1049E00002D0022808D103E00120FFF7FBF803E022
:1049F0000220FFF7F7F800BF00BF00200149087050
:104A0000012010BD88270020EE0B0020000C014083
:104A10009C812142AA0B002030B58DB039488078A6
:104A2000002840D13748407930B13748427937A122
:104A3000684600F0D5F905E03348427937A1684669
:104A400000F0CEF96A4600210846FEF735FC2D48F5
:104A5000428A36A1684600F0C3F96A460221002066
:104A6000FEF72AFC27498868FBF7FDFE044622462C
:104A70000B4633A1684600F0B3F96A4604210020D2
:104A8000FEF71AFC1F49C868FBF7EDFE04462246F4
:104A90000B4630A1684600F0A3F96A4606210020C3
:104AA000FEF70AFC2BE017488078012827D115482B
:104AB000827D2DA1684600F093F96A46022100200C
:104AC000FEF7FAFB10488078012803D00E48807862
:104AD000032804D128A1684600F082F90AE00A48B8
:104AE000807818B108488078022803D125A168464B
:104AF00000F076F96A4604210020FEF7DDFB012074
:104B00000DB030BD88270020EE0B0020D3A4B6F9ED
:104B1000D2D1D0D1C0B43A2025642000D3A4B6F9B4
:104B2000CBAFC3DFD6D03A2025642000B9E2D5D57B
:104B30003A20256420202020202020200000000092
:104B4000CEC2B6C83A20252E316620202020202053
:104B500000000000CAAAB6C83A20252E31662020DF
:104B60002020202000000000B5B1C7B0D2F4C0D68C
:104B70003A20256420202000D5FDD4DAB2A5B7C59F
:104B800020202000D4DDCDA3D6D02020202020005E
:104B900000BFFEE710B586B00446012144F20400D0
:104BA000FEF79CFE4FF40070ADF8140003208DF862
:104BB000160018208DF8170005A91C48FCF7DDFF2A
:104BC0004FF48060ADF8140004208DF8170005A99B
:104BD0001648FCF7D2FF25208DF8000003208DF841
:104BE00001008DF8020001208DF803006846FEF7F1
:104BF000CFF901940020ADF80800ADF80A00ADF837
:104C00000C00ADF810000C20ADF80E0001A908480A
:104C1000FFF704FE012240F225510548FFF7D9FDB8
:104C200001210348FFF743FD06B010BD0008014015
:104C30000038014010B586B0044601210420FEF77B
:104C40004DFE01214804FEF729FE2448FFF73CFDF4
:104C50000420ADF8100003208DF8120018208DF804
:104C6000130004A91E48FCF788FF0820ADF81000C7
:104C700004208DF8130004A91948FCF77EFF009466
:104C80000020ADF80400ADF80600ADF80800ADF85E
:104C90000C000C20ADF80A0069461048FFF7BEFD75
:104CA00001210E48FFF703FD012240F225510B4878
:104CB000FFF78FFD26208DF8140002208DF81500D7
:104CC00003208DF8160001208DF8170005A8FEF7C7
:104CD0005FF9FCF74DFA06B010BD0000004400403B
:104CE0000008014010B586B0044601210820FEF7F7
:104CF000F5FD01218804FEF7D1FD18208DF817007D
:104D00004FF48060ADF8140003208DF8160005A95B
:104D10001D48FCF732FF04208DF817004002ADF863
:104D2000140003208DF8160005A91748FCF725FF8D
:104D300001940020ADF810000C20ADF80E0000200A
:104D4000ADF80C00ADF80A00ADF8080001A90F4855
:104D5000FFF764FD01210D48FFF7A9FC012240F295
:104D600025510A48FFF735FD27208DF80000012066
:104D70008DF803008DF801008DF802006846FEF7FB
:104D800007F906B010BD0000000C014000480040CB
:104D900070B504460D4600260DE014F8011B0748C7
:104DA000FFF7ADFD00BF40210448FFF7DBFC002802
:104DB000F9D0701C86B2AE42EFDB70BD00480040F7
:104DC0000FB4054B10B503A9044A029800F04CF942
:104DD00010BC5DF814FB00009D5A0008B00B0020C9
:104DE0000FB4084B10B504A902AA039800F03CF9CF
:104DF000044602A9002000F0CEFC204610BC5DF85D
:104E000014FB00009757000830B528B1144C031F5D
:104E1000002021680A4605E0084630BD9A4203D8C2
:104E200010465268002AF9D1002800D041680BD002
:104E30000468A3EB0005A54204D11B681C4403468B
:104E4000046002E0436000E023603AB11C68D51AB8
:104E5000A54203D115682C441C6052685A6030BDCD
:104E6000140C00202DE9F04782460F4C10480D4EDF
:104E70000E4F001B4FF0000820F007054FF001090E
:104E800000221146504600F043FE002802D130684F
:104E900010B10020BDE8F0873C60C4E90058C6F8B6
:104EA0000090EDE7180C0020A4270020140C00202F
:104EB000A033002002E008C8121F08C1002AFAD15E
:104EC00070477047002001E001C1121F002AFBD18A
:104ED000704700002DE9FF5F82B00021DDE904305A
:104EE000020DDDF840B0034318D044F61050A2F292
:104EF000FF3242431514119801281FD0A5EB0B0077
:104F0000401C5FEA000A4FF000064E4FDFF8389170
:104F1000B046504615D5CAF1000413E0119801249B
:104F20004AA3012801D16FEA0B010298119AC0E946
:104F30000031C0E9024206B0BDE8F09FCBF10000AD
:104F4000DFE704460021404A491842EB0450CDE90E
:104F5000001012E0E00707D032463B464046494683
:104F6000FBF7E3FB8046894632463B46104619462E
:104F7000FBF7DBFB06460F466410002CEAD1DDE9A7
:104F80000401DDE90023BAF1000F06DAFBF7CDFBDF
:104F900042464B46FBF7C9FB05E0FBF73DFE4246A8
:104FA0004B46FBF739FE04460E460022284BFBF722
:104FB00085FC03D84FF0FF30014607E00022254B67
:104FC00020463146FBF70AFBFBF7A1FE102409E05F
:104FD000002C0ADB0A220023FBF7BAFC039B3032C9
:104FE0001A55641E50EA0102F2D1641C039AC4F1FE
:104FF00011031444119A012A03D0012208430DD150
:105000000AE0084304D000204FF0110B119072E722
:10501000A3EB0B056D1E0DE05B4504DD4FF00002B8
:1050200005F1010504E003DA4FF00002A5F10105E6
:10503000002AECD002981199C0E90231C0E900457C
:1050400079E70000000014400000F03F300000004D
:105050000000F0430000E03F30380A2801D2012070
:1050600070470020704700002DE9FF4F95B09B4628
:105070008946064600250FE2252877D100242746D9
:10508000F84A0121059400E0044316F8013F203B53
:1050900001FA03F01042F7D130782A2811D06FF0CE
:1050A0002F033078A0F13002092A16D8059A44F06F
:1050B000020402EB820203EB42021044761C0590CC
:1050C000EFE759F8042B0592002A03DA504244F422
:1050D0000054059044F00204761C30782E2816D136
:1050E00016F8010F44F004042A280DD06FF02F02A7
:1050F0003078A0F13003092B09D807EB870302EBC6
:105100004303C718761CF3E759F8047B761C307804
:105110006C280FD006DC4C2817D068280DD06A28E0
:1051200014D104E0742810D07A280FD10DE044F493
:1051300000140AE044F4801401E044F4401472784E
:10514000824202D104F58014761C761C30786628E1
:105150000BD013DC582877D009DC002875D04528FF
:10516000F6D04628F4D047281AD19DE118E06328EC
:1051700035D0642879D0652812D195E1702873D094
:1051800008DC6728F1D069286FD06E280DD06F2811
:1051900006D1B5E073282CD0752875D0782874D046
:1051A0005A46179990476D1C75E1C4F302500228C6
:1051B00009D003280DD0D9F8001004280DD00D60B7
:1051C00009F1040967E1D9F80010EA17C1E90052B2
:1051D000F6E7D9F800100D80F2E70D70F0E719F846
:1051E000041B8DF8001000208DF80100EA46012014
:1051F00003E059F804AB4FF0FF3061074FF00001B6
:1052000002D40DE008F101018846B9420FDA804569
:10521000F8DB1AF808100029F4D108E008F10101C0
:1052200088468142FADB1AF808100029F6D1059861
:105230005B46A0EB080721463846179A00F094FA1F
:10524000284400EB080507E04DE029E10DE01AF8DD
:10525000010B5A4617999047B8F10108F7D25B46FF
:1052600021463846179A13E142E00A220092C4F31D
:1052700002524FF0000A022A08D059F804CB032A40
:105280004FEAEC710AD00DE029E02AE009F10701AC
:1052900021F00702F2E802C1914609E00FFA8CFC06
:1052A0004FEAEC71042A03D14FFA8CFC4FEAEC71FF
:1052B000002907DA0A460021DCF1000C61EB02014B
:1052C0002D2202E0220504D52B228DF80420012294
:1052D00003E0E20701D02022F7E7904659E00A21D7
:1052E00002E010220DE010214FF0000A00910BE0C7
:1052F00010224FF0000A44F004040827009203E053
:1053000008224FF0000A0092C4F30252022A05D08C
:1053100059F804CB0021032A08D009E009F107015C
:1053200021F00702F2E802C1914605E01FFA8CFC69
:10533000042A01D10CF0FF0C4FF00008220728D5F9
:10534000702806D0009B83F0100353EA0A0305D0AF
:105350000EE040228DF80420012208E05CEA010200
:1053600006D030228DF804208DF8050002229046E8
:10537000009B83F0080353EA0A030AD15CEA0102A6
:1053800001D1620705D530228DF804204FF00108C5
:105390007F1E582804D034A003900EA802900DE080
:1053A00036A0F9E753466046009AFBF7D1FA8446E7
:1053B0000398825C0298401E029002705CEA010031
:1053C000F0D1029806A9081A00F1200A600702D558
:1053D00024F4803400E00127574502DDA7EB0A00E2
:1053E00000E0002000EB0A01009005984144401ABB
:1053F0000590E00306D45B462146179A059800F015
:10540000B3F90544002706E001A85A46C05D179984
:1054100090476D1C7F1C4745F6DBE0030CD55B46CF
:105420002146179A059800F09FF9054404E03020C2
:105430005A46179990476D1C0099481E0090002904
:10544000F5DC08E0029802995A460078491C02915E
:10545000179990476D1CBAF10001AAF1010AF1DC1D
:1054600065E1000009280100303132333435363728
:1054700038396162636465660000000030313233A0
:105480003435363738394142434445460000000040
:1054900000F058F90544761C307800287FF4ECAD14
:1054A00019B02846BDE8F08F620700D4062709F13D
:1054B000070222F0070CFCE80223E14603F0004853
:1054C0005FEA080C02D00FF2702C0DE05FEA045C7A
:1054D00002D50FF2682C07E05FEAC47C02D00FF21D
:1054E000602C01E0AFF2700C4FF0FF3823F0004366
:1054F000CDF850C065280CD006DC452809D04628D8
:105500001DD047283DD13DE0662818D067287ED1C0
:1055100038E00021112F01DB112000E0781CCDE9DB
:10552000000106A90EA8FFF7D5FCDDE90F010E9AD0
:1055300003910021009207F1010A04914DE04FF020
:1055400000400097CDE9011006A90EA8FFF7C2FCA4
:10555000DDE90F0203920E9B11990022DDF80CA0E9
:105560000093049211B9791C00EB010AB7EB0A0011
:1055700004D4C0F1FF3007F1010A0490AAEB070040
:10558000019044E0012F00DA01270021112F01DDF5
:10559000112000E03846CDE9000106A90EA8FFF76A
:1055A00099FCDDE90F010E9A03910021049100920C
:1055B000BA4621070CD40399514500DA8A46BAF15C
:1055C000010F05DD009AAAF10101515C302908D0D4
:1055D000B84202DA10F1040F06DA0121CDE9011018
:1055E00015E0AAF10101E9E7002805DC049901446E
:1055F0000491AAEB000102E0411C514500DD8A46FE
:105600000499401A401C01904FF00040029020077E
:1056100004D40198504501DBCDF8048000208DF8BA
:105620004F0002980DF14F07B0F1004F25D02B200D
:105630000E9002984FF0020800280CDA40420290C7
:105640002D200E9007E00A210298FBF76BF930310C
:10565000029007F8011DB8F10001A8F10108F2DC81
:1056600002980028EFD1791E0E980870307800F06B
:10567000200040F0450007F8020D12A8C01B00F101
:1056800007081498007800B1012000EB0A01019886
:1056900001EBE07105984144401A401E0590E0037B
:1056A00006D45B462146179A059800F05DF805443C
:1056B0001498007818B15A46179990476D1CE0036A
:1056C00024D55B462146179A059800F04DF805440D
:1056D0001CE00498002807DBDDE90301884203DDB4
:1056E0000098405C179901E0179930205A4690477E
:1056F000049805F10105401C04900198401E01909A
:1057000004D12E205A46179990476D1CBAF100011A
:10571000AAF1010ADDDC05E017F8010B5A461799DA
:1057200090476D1CB8F10001A8F10108F4DC5B465C
:105730002146179A0598ABE62D0000002B000000CB
:10574000200000002DE9F041044600251E461746C2
:10575000880404D405E039462020B0476D1C641E3F
:10576000F9D52846BDE8F0812DE9F0410446002531
:105770001E469046C80301D5302700E02027880444
:1057800004D505E041463846B0476D1C641EF9D586
:105790002846BDE8F0810A68531C0B601070704702
:1057A000014609B1086808B90020704719B1D1E96C
:1057B0000120904201D30846F7E702E08868401CC8
:1057C000886041B1D1E90120904204D28A6808681A
:1057D000805C2028F2DDD1E90120904202D1886866
:1057E000401E88600846E0E770B50446002522E0C8
:1057F0002568A08900F4807020B9A06810B1A06865
:10580000FFF7F2FFA08900F4807028B9206918B171
:105810000A4A206951688847A08900F4007028B9B5
:10582000206A18B1054A206A5168884703484168D0
:10583000204688472C46002CDAD170BDD80B0020BA
:1058400070B504460D4600222946204600F036F980
:1058500070BD70B5044628202168884705461DB1F3
:1058600028212846FAF79FFC284670BD10B504464B
:1058700000221146204600F06BF810BD2DE9F047DC
:105880008AB004460E46154698461C2103A8FAF72E
:105890008AFC002700202C490860486004B106B942
:1058A00032E00394049600200590284A07CA07AB0B
:1058B00007C32648FFF7CDFF074607B924E003A832
:1058C00000F080FD8246FFF76BFF8146494638466F
:1058D00000F0A4FC00B917E0B8F1000F0BD003A84A
:1058E000FFF75EFFDDE90410884203D205990398B3
:1058F000405C00B108E01DB1059903980844286098
:1059000038460AB0BDE8F08717B13846FFF76CFF9C
:10591000C4B1019400200290DDE90410884202D253
:105920000598029004E0049810B10498401E02907B
:105930001DB1DDE90101084428600348DDE90112D9
:1059400006C000BF0020DCE7D00B0020D80B0020F1
:105950002DE9F04104460D46164614B90020BDE875
:10596000F0812046FAF752FC471C33462A46394656
:105970002046FFF783FFF2E770B504460D4604B1F9
:105980000DB9012070BDAC4201D10020FAE705E05D
:10599000207808B90020F5E7641C6D1C2078FAF720
:1059A000E3FB06462878FAF7DFFB8642F0D0207842
:1059B000FAF7DAFB06462878FAF7D6FB301AE1E761
:1059C00010B56FF00400FEF783FA0A4800680A4930
:1059D000B0FBF1F0094908700846007800EB40017F
:1059E000C1EBC0104FF6FF7101EAC0000449088006
:1059F00010BD00000400002000127A00AC0B002053
:105A0000AE0B00200146114A12884A434FF0E023B2
:105A10005A6100229A611A46126942F001021A6123
:105A200000BF4FF0E022106900F001021AB100F44B
:105A30008032002AF5D04FF0E022126922F00102F4
:105A40004FF0E0231A6100229A617047AE0B0020EC
:105A50000146114A12784A434FF0E0235A6100226E
:105A60009A611A46126942F001021A6100BF4FF0B2
:105A7000E022106900F001021AB100F48032002A1D
:105A8000F5D04FF0E022126922F001024FF0E0233E
:105A90001A6100229A617047AC0B002000BF054AD2
:105AA000128802F04002002AF9D0C2B2014B1B1D3D
:105AB0001A807047003801402E2070472DE9F041D0
:105AC00005460E461746002405B116B90020BDE86C
:105AD000F081AC685FB100E024688CB1206A78B1D5
